{
  "Returns the current ethereum protocol version": [
    {
      "name": "eth_protocolVersion",
      "params": [],
      "result": "54"
    }
  ],
  "Returns the client coinbase address": [
    {
      "name": "eth_coinbase",
      "params": [],
      "result": "0x1337133713371337133713371337133713371337"
    }
  ],
  "Returns true if client is actively mining new blocks": [
    {
      "name": "eth_mining",
      "params": [],
      "result": false
    }
  ],
  "Returns the number of hashes per second that the node is mining with": [
    {
      "name": "eth_hashrate",
      "params": [],
      "result": "0x0"
    }
  ],
  "Returns the current price per gas in wei": [
    {
      "name": "eth_gasPrice",
      "params": [],
      "result": "0xba43b7400"
    }
  ],
  "Returns a list of addresses owned by client": [
    {
      "name": "sandbox_addAccounts",
      "params": [{
        "0xdedb49385ad5b94a16f236a6890cf9e0b1e30392": {
          "pkey": "0x974f963ee4571e86e5f9bc3b493e453db9c15e5bd19829a4ef9a790de0da0015",
          "default": true
        }
      }]
    },
    {
      "name": "eth_accounts",
      "params": [],
      "result": ["0xdedb49385ad5b94a16f236a6890cf9e0b1e30392"]
    }
  ],
  "Transfers ether by tx": [
    {
      "name": "sandbox_addAccounts",
      "params": [{
        "0xdedb49385ad5b94a16f236a6890cf9e0b1e30392": {
          "pkey": "0x974f963ee4571e86e5f9bc3b493e453db9c15e5bd19829a4ef9a790de0da0015",
          "default": true
        }
      }]
    },
    {
      "name": "sandbox_createAccounts",
      "params": [{
        "0xdedb49385ad5b94a16f236a6890cf9e0b1e30392": {
          "balance": "0x1000000"
        }
      }],
      "result": null
    },
    {
      "name": "eth_sendTransaction",
      "params": [{
        "from": "0xdedb49385ad5b94a16f236a6890cf9e0b1e30392",
        "to": "0xd46e8dd67c5d32be8058bb8eb970870f07244567",
        "gas": "0x10000",
        "gasPrice": "0x2",
        "value": "0x10"
      }],
      "result": "0x99c6f70d60036841cd6de53eff3d0d5ec63132c7291df7515a1e95ee5e3426fd"
    },
    {
      "name": "sandbox_accounts",
      "wait": true,
      "params": [true],
      "result": {
        "0x1337133713371337133713371337133713371337":{
          "nonce":null,
          "balance":"0x4563918244f4a410",
          "storage":{},
          "code":"0x"
        },
        "0xd46e8dd67c5d32be8058bb8eb970870f07244567":{
          "nonce":null,
          "balance":"0x10",
          "storage":{},
          "code":"0x"
        },
        "0xdedb49385ad5b94a16f236a6890cf9e0b1e30392":{
          "nonce":"0x1",
          "balance":"0xff5be0",
          "storage":{},
          "code":"0x"
        }
      }
    }
  ],
  "Transfers ether by tx rlp": [
    {
      "name": "sandbox_addAccounts",
      "params": [{
        "0xdedb49385ad5b94a16f236a6890cf9e0b1e30392": {
          "pkey": "0x974f963ee4571e86e5f9bc3b493e453db9c15e5bd19829a4ef9a790de0da0015",
          "default": true
        }
      }]
    },
    {
      "name": "sandbox_createAccounts",
      "params": [{
        "0xdedb49385ad5b94a16f236a6890cf9e0b1e30392": {
          "balance": "0x157079600000000010"
        }
      }],
      "result": null
    },
    {
      "name": "eth_sendRawTransaction",
      "params": ["0xf86580850ba43b7400832fefd894084f6a99003dae6d3906664fdbf43dd09930d0e30a801ba064384dea6c2bded7193396cbc26070def21c4fe0227493f7026fbcfc0ad83e0ea04f07f3c78f7b89dc1fd737df8b36c5cf8e29110c3e73dee602dcc093424091b0"],
      "result": "0x4617ec0378179264f64c67571a26db2e8ffc6c52356a77096c80b1650194f6bb"
    },
    {
      "name": "sandbox_accounts",
      "wait": true,
      "params": [true],
      "result": {
        "0x084f6a99003dae6d3906664fdbf43dd09930d0e3":{
          "nonce":null,
          "balance":"0xa",
          "storage":{},
          "code":"0x"
        },
        "0x1337133713371337133713371337133713371337":{
          "nonce":null,
          "balance":"0x45674c7a71f7a000",
          "storage":{},
          "code":"0x"
        },
        "0xdedb49385ad5b94a16f236a6890cf9e0b1e30392":{
          "nonce":"0x1",
          "balance":"0x157075a507d2fc6006",
          "storage":{},
          "code":"0x"
        }
      }
    }
  ],
  "Returns error on sending a tx with too big value": [
    {
      "name": "sandbox_addAccounts",
      "params": [{
        "0xdedb49385ad5b94a16f236a6890cf9e0b1e30392": {
          "pkey": "0x974f963ee4571e86e5f9bc3b493e453db9c15e5bd19829a4ef9a790de0da0015",
          "default": true
        }
      }]
    },
    {
      "name": "sandbox_createAccounts",
      "params": [{
        "0xdedb49385ad5b94a16f236a6890cf9e0b1e30392": {
          "balance": "0x1000000"
        }
      }],
      "result": null
    },
    {
      "name": "eth_sendTransaction",
      "params": [{
        "from": "0xdedb49385ad5b94a16f236a6890cf9e0b1e30392",
        "to": "0xd46e8dd67c5d32be8058bb8eb970870f07244567",
        "gas": "0x1",
        "gasPrice": "0x2",
        "value": "0x1000001"
      }],
      "error": "Account 0xdedb49385ad5b94a16f236a6890cf9e0b1e30392 has only 16777216 wei on its balance, but the transaction requires an advance in 16777219 + 16777217 wei."
    }
  ],
  "Returns the number of most recent block": [
    {
      "name": "sandbox_addAccounts",
      "params": [{
        "0xdedb49385ad5b94a16f236a6890cf9e0b1e30392": {
          "pkey": "0x974f963ee4571e86e5f9bc3b493e453db9c15e5bd19829a4ef9a790de0da0015",
          "default": true
        }
      }]
    },
    {
      "name": "sandbox_createAccounts",
      "params": [{
        "0xdedb49385ad5b94a16f236a6890cf9e0b1e30392": {
          "balance": "0x1000000000000000000000"
        }
      }],
      "result": null
    },
    {
      "name": "eth_sendTransaction",
      "params": [{
        "from": "0xdedb49385ad5b94a16f236a6890cf9e0b1e30392",
        "to": "0xd46e8dd67c5d32be8058bb8eb970870f07244567",
        "gas": "0x1",
        "gasPrice": "0x2",
        "value": "0x10"
      }],
      "result": "0x54cdb80944fbbd5031d59f511043077974f9e72079f0df09777fafa1b5c11f25"
    },
    {
      "name": "eth_sendTransaction",
      "params": [{
        "from": "0xdedb49385ad5b94a16f236a6890cf9e0b1e30392",
        "to": "0xd46e8dd67c5d32be8058bb8eb970870f07244567",
        "gas": "0x1",
        "gasPrice": "0x2",
        "value": "0x10"
      }],
      "result": "0xe71290c71f1ce825693359e381ebd2625160ffe277be908a8c68cdd841d6ad1f"
    },
    {
      "name": "eth_blockNumber",
      "wait": true,
      "params": [],
      "result": "0x02"
    }
  ],
  "Returns the balance of the account of given address": [
    {
      "name": "sandbox_addAccounts",
      "params": [{
        "0xdedb49385ad5b94a16f236a6890cf9e0b1e30392": {
          "pkey": "0x974f963ee4571e86e5f9bc3b493e453db9c15e5bd19829a4ef9a790de0da0015",
          "default": true
        }
      }]
    },
    {
      "name": "sandbox_createAccounts",
      "params": [{
        "0xdedb49385ad5b94a16f236a6890cf9e0b1e30392": {
          "balance": "0x123456"
        }
      }],
      "result": null
    },
    {
      "name": "eth_getBalance",
      "params": ["0xdedb49385ad5b94a16f236a6890cf9e0b1e30392", "latest"],
      "result": "0x123456"
    }
  ],
  "Returns zero balance for the empty account": [
    {
      "name": "eth_getBalance",
      "params": ["0xdedb49385ad5b94a16f236a6890cf9e0b1e30392", "latest"],
      "result": "0x0"
    }
  ],
  "Returns the value from a storage position at a given address": [
    {
      "name": "sandbox_addAccounts",
      "params": [{
        "0xdedb49385ad5b94a16f236a6890cf9e0b1e30392": {
          "pkey": "0x974f963ee4571e86e5f9bc3b493e453db9c15e5bd19829a4ef9a790de0da0015",
          "default": true
        }
      }]
    },
    {
      "name": "sandbox_createAccounts",
      "params": [{
        "0xdedb49385ad5b94a16f236a6890cf9e0b1e30392": {
          "balance": "0x1000000000000000000000",
          "storage": {
            "0x1": "0x1234"
          }
        }
      }],
      "result": null
    },
    {
      "name": "eth_getStorageAt",
      "params": ["0xdedb49385ad5b94a16f236a6890cf9e0b1e30392", "0x01", "latest"],
      "result": "0x0000000000000000000000000000000000000000000000000000000000001234"
    }
  ],
  "Returns the receipt of a transaction by transaction hash": [
    {
      "name": "sandbox_addAccounts",
      "params": [{
        "0xdedb49385ad5b94a16f236a6890cf9e0b1e30392": {
          "pkey": "0x974f963ee4571e86e5f9bc3b493e453db9c15e5bd19829a4ef9a790de0da0015",
          "default": true
        }
      }]
    },
    {
      "name": "sandbox_createAccounts",
      "params": [{
        "0xdedb49385ad5b94a16f236a6890cf9e0b1e30392": {
          "balance": "0x1000000000000000000000"
        }
      }],
      "result": null
    },
    {
      "name": "eth_sendTransaction",
      "params": [{
        "from": "0xdedb49385ad5b94a16f236a6890cf9e0b1e30392",
        "to": "0xd46e8dd67c5d32be8058bb8eb970870f07244567",
        "gas": "0x1",
        "gasPrice": "0x2",
        "value": "0x10"
      }],
      "result": "0x54cdb80944fbbd5031d59f511043077974f9e72079f0df09777fafa1b5c11f25"
    },
    {
      "name": "eth_getTransactionReceipt",
      "wait": true,
      "params": ["0x54cdb80944fbbd5031d59f511043077974f9e72079f0df09777fafa1b5c11f25"],
      "result": {
        "transactionHash":"0x54cdb80944fbbd5031d59f511043077974f9e72079f0df09777fafa1b5c11f25",
        "transactionIndex":"0x1",
        "blockNumber":"0x1",
        "blockHash":"/0x[\\dabcdef]{64}/",
        "cumulativeGasUsed":"0x5208",
        "gasUsed":"0x5208",
        "contractAddress":null,
        "logs":[]
      }
    }
  ],
  "Returns the number of transactions send from a address": [
    {
      "name": "sandbox_addAccounts",
      "params": [{
        "0xdedb49385ad5b94a16f236a6890cf9e0b1e30392": {
          "pkey": "0x974f963ee4571e86e5f9bc3b493e453db9c15e5bd19829a4ef9a790de0da0015",
          "default": true
        }
      }]
    },
    {
      "name": "sandbox_createAccounts",
      "params": [{
        "0xdedb49385ad5b94a16f236a6890cf9e0b1e30392": {
          "nonce": "0x1",
          "balance": "0x1000000000000000000000"
        }
      }],
      "result": null
    },
    {
      "name": "eth_sendTransaction",
      "params": [{
        "from": "0xdedb49385ad5b94a16f236a6890cf9e0b1e30392",
        "to": "0xd46e8dd67c5d32be8058bb8eb970870f07244567",
        "gas": "0x1",
        "gasPrice": "0x2",
        "value": "0x10"
      }],
      "result": "0xe71290c71f1ce825693359e381ebd2625160ffe277be908a8c68cdd841d6ad1f"
    },
    {
      "name": "eth_getTransactionCount",
      "wait": true,
      "params": [
        "0xdedb49385ad5b94a16f236a6890cf9e0b1e30392",
        "latest"
      ],
      "result": "0x2"
    }
  ],
  "Returns the number of transactions in a block from a block matching the given block hash": [
    {
      "name": "sandbox_addAccounts",
      "params": [{
        "0xdedb49385ad5b94a16f236a6890cf9e0b1e30392": {
          "pkey": "0x974f963ee4571e86e5f9bc3b493e453db9c15e5bd19829a4ef9a790de0da0015",
          "default": true
        }
      }]
    },
    {
      "name": "sandbox_createAccounts",
      "params": [{
        "0xdedb49385ad5b94a16f236a6890cf9e0b1e30392": {
          "balance": "0x1000000000000000000000"
        }
      }],
      "result": null
    },
    {
      "name": "eth_sendTransaction",
      "params": [{
        "from": "0xdedb49385ad5b94a16f236a6890cf9e0b1e30392",
        "to": "0xd46e8dd67c5d32be8058bb8eb970870f07244567",
        "gas": "0x1",
        "gasPrice": "0x2",
        "value": "0x10"
      }],
      "result": "0x54cdb80944fbbd5031d59f511043077974f9e72079f0df09777fafa1b5c11f25"
    },
    {
      "name": "eth_getTransactionReceipt",
      "wait": true,
      "params": ["0x54cdb80944fbbd5031d59f511043077974f9e72079f0df09777fafa1b5c11f25"],
      "result": {
        "transactionHash":"0x54cdb80944fbbd5031d59f511043077974f9e72079f0df09777fafa1b5c11f25",
        "transactionIndex":"0x1",
        "blockNumber":"0x1",
        "blockHash":"/0x[\\dabcdef]{64}/",
        "cumulativeGasUsed":"0x5208",
        "gasUsed":"0x5208",
        "contractAddress":null,
        "logs":[]
      }
    },
    {
      "name": "eth_getBlockTransactionCountByHash",
      "params": ["{3.blockHash}"],
      "result": "0x1"
    }
  ],
  "Returns the number of transactions in a block from a block matching the given block number": [
    {
      "name": "sandbox_addAccounts",
      "params": [{
        "0xdedb49385ad5b94a16f236a6890cf9e0b1e30392": {
          "pkey": "0x974f963ee4571e86e5f9bc3b493e453db9c15e5bd19829a4ef9a790de0da0015",
          "default": true
        }
      }]
    },
    {
      "name": "sandbox_createAccounts",
      "params": [{
        "0xdedb49385ad5b94a16f236a6890cf9e0b1e30392": {
          "balance": "0x1000000000000000000000"
        }
      }],
      "result": null
    },
    {
      "name": "eth_sendTransaction",
      "params": [{
        "from": "0xdedb49385ad5b94a16f236a6890cf9e0b1e30392",
        "to": "0xd46e8dd67c5d32be8058bb8eb970870f07244567",
        "gas": "0x1",
        "gasPrice": "0x2",
        "value": "0x10"
      }],
      "result": "0x54cdb80944fbbd5031d59f511043077974f9e72079f0df09777fafa1b5c11f25"
    },
    {
      "name": "eth_getBlockTransactionCountByNumber",
      "wait": true,
      "params": ["0x1"],
      "result": "0x1"
    }
  ],
  "Returns the number of uncles in a block from a block matching the given block hash": [
    {
      "name": "eth_getUncleCountByBlockHash",
      "params": ["0x54cdb80944fbbd5031d59f511043077974f9e72079f0df09777fafa1b5c11f25"],
      "result": "0x0"
    }
  ],
  "Returns the number of uncles in a block from a block matching the given block number": [
    {
      "name": "eth_getUncleCountByBlockNumber",
      "params": ["0x54cdb80944fbbd5031d59f511043077974f9e72079f0df09777fafa1b5c11f25"],
      "result": "0x0"
    }
  ],
  "Returns code at a given address": [
    {
      "name": "sandbox_addAccounts",
      "params": [{
        "0xdedb49385ad5b94a16f236a6890cf9e0b1e30392": {
          "pkey": "0x974f963ee4571e86e5f9bc3b493e453db9c15e5bd19829a4ef9a790de0da0015",
          "default": true
        }
      }]
    },
    {
      "name": "sandbox_createAccounts",
      "params": [{
        "0xdedb49385ad5b94a16f236a6890cf9e0b1e30392": {
          "balance": "0x1000000000000000000000",
          "code": "0x102030405"
        }
      }],
      "result": null
    },
    {
      "name": "eth_getCode",
      "params": ["0xdedb49385ad5b94a16f236a6890cf9e0b1e30392", "latest"],
      "result": "0x0102030405"
    }
  ],
  "Executes a new message call immediately without creating a transaction on the block chain": [
    {
      "name": "sandbox_addAccounts",
      "params": [{
        "0xdedb49385ad5b94a16f236a6890cf9e0b1e30392": {
          "pkey": "0x974f963ee4571e86e5f9bc3b493e453db9c15e5bd19829a4ef9a790de0da0015",
          "default": true
        }
      }]
    },
    {
      "name": "sandbox_createAccounts",
      "params": [{
        "0xdedb49385ad5b94a16f236a6890cf9e0b1e30392": {
          "balance": "0x1000000000000000000000",
          "code": "0x60606040526000357c010000000000000000000000000000000000000000000000000000000090048063f8a8fd6d146037576035565b005b60406004506056565b6040518082815260200191505060405180910390f35b6000600190506060565b9056"
        }
      }],
      "result": null
    },
    {
      "name": "eth_call",
      "params": [
        {
          "to": "0xdedb49385ad5b94a16f236a6890cf9e0b1e30392",
          "data": "0xf8a8fd6d"
        },
        "latest"
      ],
      "result": "0x0000000000000000000000000000000000000000000000000000000000000001"
    }
  ],
  "Makes a call or transaction, which won't be add to the blockchain and returns the used gas, which can be used for estimating the used gas": [
    {
      "name": "sandbox_addAccounts",
      "params": [{
        "0xdedb49385ad5b94a16f236a6890cf9e0b1e30392": {
          "pkey": "0x974f963ee4571e86e5f9bc3b493e453db9c15e5bd19829a4ef9a790de0da0015",
          "default": true
        }
      }]
    },
    {
      "name": "sandbox_createAccounts",
      "params": [{
        "0xdedb49385ad5b94a16f236a6890cf9e0b1e30392": {
          "balance": "0x1000000000000000000000",
          "code": "0x60606040526000357c010000000000000000000000000000000000000000000000000000000090048063f8a8fd6d146037576035565b005b60406004506056565b6040518082815260200191505060405180910390f35b6000600190506060565b9056"
        }
      }],
      "result": null
    },
    {
      "name": "eth_estimateGas",
      "params": [
        {
          "from": "0xdedb49385ad5b94a16f236a6890cf9e0b1e30392",
          "to": "0xdedb49385ad5b94a16f236a6890cf9e0b1e30392",
          "data": "0xf8a8fd6d"
        },
        "latest"
      ],
      "result": "0x53bd"
    }
  ],
  "Returns information about a block by block hash": [
    {
      "name": "sandbox_addAccounts",
      "params": [{
        "0xdedb49385ad5b94a16f236a6890cf9e0b1e30392": {
          "pkey": "0x974f963ee4571e86e5f9bc3b493e453db9c15e5bd19829a4ef9a790de0da0015",
          "default": true
        }
      }]
    },
    {
      "name": "sandbox_createAccounts",
      "params": [{
        "0xdedb49385ad5b94a16f236a6890cf9e0b1e30392": {
          "balance": "0x1000000000000000000000"
        }
      }],
      "result": null
    },
    {
      "name": "eth_sendTransaction",
      "params": [{
        "from": "0xdedb49385ad5b94a16f236a6890cf9e0b1e30392",
        "to": "0xd46e8dd67c5d32be8058bb8eb970870f07244567",
        "gas": "0x1",
        "gasPrice": "0x2",
        "value": "0x10"
      }],
      "result": "0x54cdb80944fbbd5031d59f511043077974f9e72079f0df09777fafa1b5c11f25"
    },
    {
      "name": "eth_getTransactionReceipt",
      "wait": true,
      "params": ["0x54cdb80944fbbd5031d59f511043077974f9e72079f0df09777fafa1b5c11f25"],
      "result": {
        "transactionHash":"0x54cdb80944fbbd5031d59f511043077974f9e72079f0df09777fafa1b5c11f25",
        "transactionIndex":"0x1",
        "blockNumber":"0x1",
        "blockHash":"/0x[\\dabcdef]{64}$/",
        "cumulativeGasUsed":"0x5208",
        "gasUsed":"0x5208",
        "contractAddress":null,
        "logs":[]
      }
    },
    {
      "name": "eth_getBlockByHash",
      "params": ["{3.blockHash}", true],
      "result": {
        "number":"0x01",
        "hash":"/^0x[\\dabcdef]{64}$/",
        "parentHash":"/^0x[\\dabcdef]{64}$/",
        "nonce":"0x0000000000000000",
        "sha3Uncles":"0x1dcc4de8dec75d7aab85b567b6ccd41ad312451b948a7413f0a142fd40d49347",
        "logsBloom":"0x00000000000000000000000000000000000000000000000000000000000000000000000000000000000000000000000000000000000000000000000000000000000000000000000000000000000000000000000000000000000000000000000000000000000000000000000000000000000000000000000000000000000000000000000000000000000000000000000000000000000000000000000000000000000000000000000000000000000000000000000000000000000000000000000000000000000000000000000000000000000000000000000000000000000000000000000000000000000000000000000000000000000000000000000000000000",
        "transactionsRoot":"0x56e81f171bcc55a6ff8345e692c0f86e5b48e01b996cadc001622fb5e363b421",
        "stateRoot":"0xda2c9a20b161e92708f169b37fd000b96b85312eba6421f039b57b93b4036094",
        "miner":"0x1337133713371337133713371337133713371337",
        "difficulty":"0x03e8",
        "totalDifficulty":"0x03e8",
        "extraData":"0x0",
        "size":"0x256",
        "gasLimit":"0x2fefd8",
        "gasUsed":"0x0",
        "timestamp":"/^0x[\\dabcdef]+$/",
        "transactions":[
          "0x54cdb80944fbbd5031d59f511043077974f9e72079f0df09777fafa1b5c11f25"
        ],
        "uncles":[]
      }
    }
  ],
  "Returns information about a block by block number": [
    {
      "name": "sandbox_addAccounts",
      "params": [{
        "0xdedb49385ad5b94a16f236a6890cf9e0b1e30392": {
          "pkey": "0x974f963ee4571e86e5f9bc3b493e453db9c15e5bd19829a4ef9a790de0da0015",
          "default": true
        }
      }]
    },
    {
      "name": "sandbox_createAccounts",
      "params": [{
        "0xdedb49385ad5b94a16f236a6890cf9e0b1e30392": {
          "balance": "0x1000000000000000000000"
        }
      }],
      "result": null
    },
    {
      "name": "eth_sendTransaction",
      "params": [{
        "from": "0xdedb49385ad5b94a16f236a6890cf9e0b1e30392",
        "to": "0xd46e8dd67c5d32be8058bb8eb970870f07244567",
        "gas": "0x1",
        "gasPrice": "0x2",
        "value": "0x10"
      }],
      "result": "0x54cdb80944fbbd5031d59f511043077974f9e72079f0df09777fafa1b5c11f25"
    },
    {
      "name": "eth_getBlockByNumber",
      "wait": true,
      "params": ["0x1", true],
      "result": {
        "number":"0x01",
        "hash":"/^0x[\\dabcdef]{64}$/",
        "parentHash":"/^0x[\\dabcdef]{64}$/",
        "nonce":"0x0000000000000000",
        "sha3Uncles":"0x1dcc4de8dec75d7aab85b567b6ccd41ad312451b948a7413f0a142fd40d49347",
        "logsBloom":"0x00000000000000000000000000000000000000000000000000000000000000000000000000000000000000000000000000000000000000000000000000000000000000000000000000000000000000000000000000000000000000000000000000000000000000000000000000000000000000000000000000000000000000000000000000000000000000000000000000000000000000000000000000000000000000000000000000000000000000000000000000000000000000000000000000000000000000000000000000000000000000000000000000000000000000000000000000000000000000000000000000000000000000000000000000000000",
        "transactionsRoot":"0x56e81f171bcc55a6ff8345e692c0f86e5b48e01b996cadc001622fb5e363b421",
        "stateRoot":"0xda2c9a20b161e92708f169b37fd000b96b85312eba6421f039b57b93b4036094",
        "miner":"0x1337133713371337133713371337133713371337",
        "difficulty":"0x03e8",
        "totalDifficulty":"0x03e8",
        "extraData":"0x0",
        "size":"0x256",
        "gasLimit":"0x2fefd8",
        "gasUsed":"0x0",
        "timestamp":"/^0x[\\dabcdef]+$/",
        "transactions":[
          "0x54cdb80944fbbd5031d59f511043077974f9e72079f0df09777fafa1b5c11f25"
        ],
        "uncles":[]
      }
    }
  ],
  "Returns the information about a transaction requested by transaction hash": [
    {
      "name": "sandbox_addAccounts",
      "params": [{
        "0xdedb49385ad5b94a16f236a6890cf9e0b1e30392": {
          "pkey": "0x974f963ee4571e86e5f9bc3b493e453db9c15e5bd19829a4ef9a790de0da0015",
          "default": true
        }
      }]
    },
    {
      "name": "sandbox_createAccounts",
      "params": [{
        "0xdedb49385ad5b94a16f236a6890cf9e0b1e30392": {
          "balance": "0x1000000000000000000000"
        }
      }],
      "result": null
    },
    {
      "name": "eth_sendTransaction",
      "params": [{
        "from": "0xdedb49385ad5b94a16f236a6890cf9e0b1e30392",
        "to": "0xd46e8dd67c5d32be8058bb8eb970870f07244567",
        "gas": "0x1",
        "gasPrice": "0x2",
        "value": "0x10"
      }],
      "result": "0x54cdb80944fbbd5031d59f511043077974f9e72079f0df09777fafa1b5c11f25"
    },
    {
      "name": "eth_getTransactionByHash",
      "wait": true,
      "params": ["0x54cdb80944fbbd5031d59f511043077974f9e72079f0df09777fafa1b5c11f25"],
      "result": {
        "hash":"0x54cdb80944fbbd5031d59f511043077974f9e72079f0df09777fafa1b5c11f25",
        "nonce":"0x0",
        "blockHash":"/^0x[\\dabcdef]{64}$/",
        "blockNumber":"0x1",
        "transactionIndex":"0x1",
        "from":"0xdedb49385ad5b94a16f236a6890cf9e0b1e30392",
        "to":"0xd46e8dd67c5d32be8058bb8eb970870f07244567",
        "value":"0x10",
        "gas":"0x1",
        "gasPrice":"0x2",
        "input":null
      }
    }
  ],
  "Returns information about a transaction by block hash and transaction index position": [
    {
      "name": "sandbox_addAccounts",
      "params": [{
        "0xdedb49385ad5b94a16f236a6890cf9e0b1e30392": {
          "pkey": "0x974f963ee4571e86e5f9bc3b493e453db9c15e5bd19829a4ef9a790de0da0015",
          "default": true
        }
      }]
    },
    {
      "name": "sandbox_createAccounts",
      "params": [{
        "0xdedb49385ad5b94a16f236a6890cf9e0b1e30392": {
          "balance": "0x1000000000000000000000"
        }
      }],
      "result": null
    },
    {
      "name": "eth_sendTransaction",
      "params": [{
        "from": "0xdedb49385ad5b94a16f236a6890cf9e0b1e30392",
        "to": "0xd46e8dd67c5d32be8058bb8eb970870f07244567",
        "gas": "0x1",
        "gasPrice": "0x2",
        "value": "0x10"
      }],
      "result": "0x54cdb80944fbbd5031d59f511043077974f9e72079f0df09777fafa1b5c11f25"
    },
    {
      "name": "eth_getTransactionReceipt",
      "wait": true,
      "params": ["0x54cdb80944fbbd5031d59f511043077974f9e72079f0df09777fafa1b5c11f25"],
      "result": {
        "transactionHash":"0x54cdb80944fbbd5031d59f511043077974f9e72079f0df09777fafa1b5c11f25",
        "transactionIndex":"0x1",
        "blockNumber":"0x1",
        "blockHash":"/0x[\\dabcdef]{64}$/",
        "cumulativeGasUsed":"0x5208",
        "gasUsed":"0x5208",
        "contractAddress":null,
        "logs":[]
      }
    },
    {
      "name": "eth_getTransactionByBlockHashAndIndex",
      "wait": true,
      "params": ["{3.blockHash}", "0x1"],
      "result": {
        "hash":"0x54cdb80944fbbd5031d59f511043077974f9e72079f0df09777fafa1b5c11f25",
        "nonce":"0x0",
        "blockHash":"/^0x[\\dabcdef]{64}$/",
        "blockNumber":"0x1",
        "transactionIndex":"0x1",
        "from":"0xdedb49385ad5b94a16f236a6890cf9e0b1e30392",
        "to":"0xd46e8dd67c5d32be8058bb8eb970870f07244567",
        "value":"0x10",
        "gas":"0x1",
        "gasPrice":"0x2",
        "input":null
      }
    }
  ],
  "Returns information about a transaction by block number and transaction index position": [
    {
      "name": "sandbox_addAccounts",
      "params": [{
        "0xdedb49385ad5b94a16f236a6890cf9e0b1e30392": {
          "pkey": "0x974f963ee4571e86e5f9bc3b493e453db9c15e5bd19829a4ef9a790de0da0015",
          "default": true
        }
      }]
    },
    {
      "name": "sandbox_createAccounts",
      "params": [{
        "0xdedb49385ad5b94a16f236a6890cf9e0b1e30392": {
          "balance": "0x1000000000000000000000"
        }
      }],
      "result": null
    },
    {
      "name": "eth_sendTransaction",
      "params": [{
        "from": "0xdedb49385ad5b94a16f236a6890cf9e0b1e30392",
        "to": "0xd46e8dd67c5d32be8058bb8eb970870f07244567",
        "gas": "0x1",
        "gasPrice": "0x2",
        "value": "0x10"
      }],
      "result": "0x54cdb80944fbbd5031d59f511043077974f9e72079f0df09777fafa1b5c11f25"
    },
    {
      "name": "eth_getTransactionByBlockNumberAndIndex",
      "wait": true,
      "params": ["0x1", "0x1"],
      "result": {
        "hash":"0x54cdb80944fbbd5031d59f511043077974f9e72079f0df09777fafa1b5c11f25",
        "nonce":"0x0",
        "blockHash":"/^0x[\\dabcdef]{64}$/",
        "blockNumber":"0x1",
        "transactionIndex":"0x1",
        "from":"0xdedb49385ad5b94a16f236a6890cf9e0b1e30392",
        "to":"0xd46e8dd67c5d32be8058bb8eb970870f07244567",
        "value":"0x10",
        "gas":"0x1",
        "gasPrice":"0x2",
        "input":null
      }
    }
  ],
  "Returns compiled solidity code": [
    {
      "name": "eth_compileSolidity",
      "params": ["contract Contract { function test() {} }"],
      "result": {
        "Contract":{
          "code":"/^0x[\\dabcdef]+$/",
          "info":{
            "source":"contract Contract { function test() {} }",
            "abiDefinition":[{
              "constant":false,
              "inputs":[],
              "name":"test",
              "outputs":[],
              "type":"function"
            }],
            "userDoc":{"methods":{}},
            "developerDoc":{"methods":{}}
          }
        }
      }
    }
  ],
  "Notifies about LOG messages": [
    {
      "name": "sandbox_addAccounts",
      "params": [{
        "0xdedb49385ad5b94a16f236a6890cf9e0b1e30392": {
          "pkey": "0x974f963ee4571e86e5f9bc3b493e453db9c15e5bd19829a4ef9a790de0da0015",
          "default": true
        }
      }]
    },
    {
      "name": "sandbox_createAccounts",
      "params": [{
        "0xdedb49385ad5b94a16f236a6890cf9e0b1e30392": {
          "balance": "0x1000000000000000000000"
        },
        "0xd46e8dd67c5d32be8058bb8eb970870f07244567": {
          "code": "0x60606040526000357c010000000000000000000000000000000000000000000000000000000090048063f8a8fd6d146037576035565b005b60406004506042565b005b60016040518082600102815260200191505060405180910390a05b56"
        }
      }],
      "result": null
    },
    {
      "name": "eth_newFilter",
      "params": [{"address": "0xd46e8dd67c5d32be8058bb8eb970870f07244567"}],
      "result": "/^0x[\\dabcdef]+$/"
    },
    {
      "name": "eth_sendTransaction",
      "params": [{
        "from": "0xdedb49385ad5b94a16f236a6890cf9e0b1e30392",
        "to": "0xd46e8dd67c5d32be8058bb8eb970870f07244567",
        "data": "0xf8a8fd6d"
      }],
      "result": "0xac8973e7b8d4e1827876b21c523a589b852bc1199b4d585cfd9d09004e3eb786"
    },
    {
      "name": "eth_getFilterChanges",
      "wait": true,
      "params": ["{2}"],
      "result": [{
        "logIndex": "0x0",
        "transactionIndex": "0x1",
        "transactionHash": "0xac8973e7b8d4e1827876b21c523a589b852bc1199b4d585cfd9d09004e3eb786",
        "blockHash": "/^0x[\\dabcdef]{64}$/",
        "blockNumber": "0x1",
        "address": "0xd46e8dd67c5d32be8058bb8eb970870f07244567",
        "data": "0x0000000000000000000000000000000000000000000000000000000000000001",
        "topics": []
      }]
    },
    {
      "name": "eth_getFilterChanges",
      "wait": true,
      "params": ["{2}"],
      "result": []
    }
  ],
  "Notifies about LOG messages with specified topic": [
    {
      "name": "sandbox_addAccounts",
      "params": [{
        "0xdedb49385ad5b94a16f236a6890cf9e0b1e30392": {
          "pkey": "0x974f963ee4571e86e5f9bc3b493e453db9c15e5bd19829a4ef9a790de0da0015",
          "default": true
        }
      }]
    },
    {
      "name": "sandbox_createAccounts",
      "params": [{
        "0xdedb49385ad5b94a16f236a6890cf9e0b1e30392": {
          "balance": "0x1000000000000000000000"
        },
        "0xd46e8dd67c5d32be8058bb8eb970870f07244567": {
          "code": "0x606060405260e060020a6000350463f8a8fd6d8114601a575b005b60187f746573743100000000000000000000000000000000000000000000000000000060609081527fe05601c9efedd6ff4b4f45924b70bcdef96c9c0296b1cbe7a6397ac295e4c13d90602090a17f746573743200000000000000000000000000000000000000000000000000000060609081527f470d576fc237b81d189692e89667ab21357d2d4467b1bedd1f404cafac8c805490602090a156"
        }
      }],
      "result": null
    },
    {
      "name": "eth_newFilter",
      "params": [{
        "address": "0xd46e8dd67c5d32be8058bb8eb970870f07244567",
        "topics": ["0xe05601c9efedd6ff4b4f45924b70bcdef96c9c0296b1cbe7a6397ac295e4c13d"]
      }],
      "result": "/^0x[\\dabcdef]+$/"
    },
    {
      "name": "eth_sendTransaction",
      "params": [{
        "from": "0xdedb49385ad5b94a16f236a6890cf9e0b1e30392",
        "gasLimit":"0x2fefd8",
        "to": "0xd46e8dd67c5d32be8058bb8eb970870f07244567",
        "data": "0xf8a8fd6d"
      }],
      "result": "0xac8973e7b8d4e1827876b21c523a589b852bc1199b4d585cfd9d09004e3eb786"
    },
    {
      "name": "eth_getFilterChanges",
      "wait": true,
      "params": ["{2}"],
      "result": [{
        "logIndex": "0x0",
        "transactionIndex": "0x1",
        "transactionHash": "0xac8973e7b8d4e1827876b21c523a589b852bc1199b4d585cfd9d09004e3eb786",
        "blockHash": "/^0x[\\dabcdef]{64}$/",
        "blockNumber": "0x1",
        "address": "0xd46e8dd67c5d32be8058bb8eb970870f07244567",
        "data": "0x7465737431000000000000000000000000000000000000000000000000000000",
        "topics": ["0xe05601c9efedd6ff4b4f45924b70bcdef96c9c0296b1cbe7a6397ac295e4c13d"]
      }]
    },
    {
      "name": "eth_getFilterChanges",
      "wait": true,
      "params": ["{2}"],
      "result": []
    }
  ],
  "Returns old LOG messages": [
    {
      "name": "sandbox_addAccounts",
      "params": [{
        "0xdedb49385ad5b94a16f236a6890cf9e0b1e30392": {
          "pkey": "0x974f963ee4571e86e5f9bc3b493e453db9c15e5bd19829a4ef9a790de0da0015",
          "default": true
        }
      }]
    },
    {
      "name": "sandbox_createAccounts",
      "params": [{
        "0xdedb49385ad5b94a16f236a6890cf9e0b1e30392": {
          "balance": "0x1000000000000000000000"
        },
        "0xd46e8dd67c5d32be8058bb8eb970870f07244567": {
          "code": "0x60606040526000357c010000000000000000000000000000000000000000000000000000000090048063f8a8fd6d146037576035565b005b60406004506042565b005b60016040518082600102815260200191505060405180910390a05b56"
        }
      }],
      "result": null
    },
    {
      "name": "eth_sendTransaction",
      "params": [{
        "from": "0xdedb49385ad5b94a16f236a6890cf9e0b1e30392",
        "to": "0xd46e8dd67c5d32be8058bb8eb970870f07244567",
        "data": "0xf8a8fd6d"
      }],
      "result": "0xac8973e7b8d4e1827876b21c523a589b852bc1199b4d585cfd9d09004e3eb786"
    },
    {
      "name": "eth_getTransactionReceipt",
      "wait": true,
      "params": ["0xac8973e7b8d4e1827876b21c523a589b852bc1199b4d585cfd9d09004e3eb786"],
      "result": {
        "transactionHash":"0xac8973e7b8d4e1827876b21c523a589b852bc1199b4d585cfd9d09004e3eb786",
        "transactionIndex":"0x1",
        "blockNumber":"0x1",
        "blockHash":"/0x[\\dabcdef]{64}/",
        "cumulativeGasUsed":"0x5626",
        "gasUsed":"0x5626",
        "contractAddress":null,
        "logs":[{
          "logIndex":"0x0",
          "transactionIndex":"0x1",
          "transactionHash":"0xac8973e7b8d4e1827876b21c523a589b852bc1199b4d585cfd9d09004e3eb786",
          "blockHash":"/0x[\\dabcdef]{64}/",
          "blockNumber":"0x1",
          "address":"0xd46e8dd67c5d32be8058bb8eb970870f07244567",
          "data":"0x0000000000000000000000000000000000000000000000000000000000000001",
          "topics":[]
        }]
      }
    },
    {
      "name": "eth_newFilter",
      "params": [{
        "fromBlock":"earliest",
        "address": "0xd46e8dd67c5d32be8058bb8eb970870f07244567"
      }],
      "result": "/^0x[\\dabcdef]+$/"
    },
    {
      "name": "eth_getFilterLogs",
      "params": ["{4}"],
      "result": [{
        "logIndex": "0x0",
        "transactionIndex": "0x1",
        "transactionHash": "0xac8973e7b8d4e1827876b21c523a589b852bc1199b4d585cfd9d09004e3eb786",
        "blockHash": "/^0x[\\dabcdef]{64}$/",
        "blockNumber": "0x1",
        "address": "0xd46e8dd67c5d32be8058bb8eb970870f07244567",
        "data": "0x0000000000000000000000000000000000000000000000000000000000000001",
        "topics": []
      }]
    }
  ],
  "Notifies about pending transactions": [
    {
      "name": "sandbox_addAccounts",
      "params": [{
        "0xdedb49385ad5b94a16f236a6890cf9e0b1e30392": {
          "pkey": "0x974f963ee4571e86e5f9bc3b493e453db9c15e5bd19829a4ef9a790de0da0015",
          "default": true
        }
      }]
    },
    {
      "name": "sandbox_createAccounts",
      "params": [{
        "0xdedb49385ad5b94a16f236a6890cf9e0b1e30392": {
          "balance": "0x1000000000000000000000"
        }
      }],
      "result": null
    },
    {
      "name": "eth_newPendingTransactionFilter",
      "params": [],
      "result": "/^0x[\\dabcdef]+$/"
    },
    {
      "name": "eth_sendTransaction",
      "params": [{
        "from": "0xdedb49385ad5b94a16f236a6890cf9e0b1e30392",
        "to": "0xd46e8dd67c5d32be8058bb8eb970870f07244567",
        "value": "0x1"
      }],
      "result": "0xec3fd16f4cdd863885835e13ad331820b3a751f60cfdf2dd75fb06d51883f81e"
    },
    {
      "name": "eth_getFilterChanges",
      "wait": true,
      "params": ["{2}"],
      "result": ["0xec3fd16f4cdd863885835e13ad331820b3a751f60cfdf2dd75fb06d51883f81e"]
    }
  ],
  "Notifies about new block": [
    {
      "name": "sandbox_addAccounts",
      "params": [{
        "0xdedb49385ad5b94a16f236a6890cf9e0b1e30392": {
          "pkey": "0x974f963ee4571e86e5f9bc3b493e453db9c15e5bd19829a4ef9a790de0da0015",
          "default": true
        }
      }]
    },
    {
      "name": "sandbox_createAccounts",
      "params": [{
        "0xdedb49385ad5b94a16f236a6890cf9e0b1e30392": {
          "balance": "0x1000000000000000000000"
        }
      }],
      "result": null
    },
    {
      "name": "eth_newBlockFilter",
      "params": [],
      "result": "/^0x[\\dabcdef]+$/"
    },
    {
      "name": "eth_sendTransaction",
      "params": [{
        "from": "0xdedb49385ad5b94a16f236a6890cf9e0b1e30392",
        "to": "0xd46e8dd67c5d32be8058bb8eb970870f07244567",
        "value": "0x1"
      }],
      "result": "0xec3fd16f4cdd863885835e13ad331820b3a751f60cfdf2dd75fb06d51883f81e"
    },
    {
      "name": "eth_getFilterChanges",
      "wait": true,
      "params": ["{2}"],
      "result": ["/^0x[\\dabcdef]{64}$/"]
    }
  ],
  "Returns an array of all logs matching a given filter object": [
    {
      "name": "sandbox_addAccounts",
      "params": [{
        "0xdedb49385ad5b94a16f236a6890cf9e0b1e30392": {
          "pkey": "0x974f963ee4571e86e5f9bc3b493e453db9c15e5bd19829a4ef9a790de0da0015",
          "default": true
        }
      }]
    },
    {
      "name": "sandbox_createAccounts",
      "params": [{
        "0xdedb49385ad5b94a16f236a6890cf9e0b1e30392": {
          "balance": "0x1000000000000000000000"
        }
      }],
      "result": null
    },
    {
      "name": "eth_sendTransaction",
      "params": [{
        "from": "0xdedb49385ad5b94a16f236a6890cf9e0b1e30392",
        "gasLimit":"0x2fefd8",
        "gasPrice": "0x1",
        "data": "0x60606040527f74657374000000000000000000000000000000000000000000000000000000006060908152600490a0600680603a6000396000f3606060405200"
      }],
      "result": "0xb3cb4c0ed494e8e3351d8cd53e87f51d0164227bcf5ab4d3dc333d5b5db90252"
    },
    {
      "name": "eth_getLogs",
      "wait": true,
      "params": [{
        "fromBlock": "earliest",
        "address": "0x86e0497e32a8e1d79fe38ab87dc80140df5470d9"
      }],
      "result": [{
        "logIndex":"0x0",
        "transactionIndex":"0x1",
        "transactionHash":"0xb3cb4c0ed494e8e3351d8cd53e87f51d0164227bcf5ab4d3dc333d5b5db90252",
        "blockHash":"/^0x[\\dabcdef]{64}$/",
        "blockNumber":"0x1",
        "address":"0x86e0497e32a8e1d79fe38ab87dc80140df5470d9",
        "data":"0x74657374",
        "topics":[]
      }]
    }
  ]
}

