{
  "Provides default account": [
    {
      "name": "sandbox_createAccounts",
      "params": [{
        "dedb49385ad5b94a16f236a6890cf9e0b1e30392": {
          "pkey": "974f963ee4571e86e5f9bc3b493e453db9c15e5bd19829a4ef9a790de0da0015",
          "default": true
        }
      }],
      "result": null
    },
    {
      "name": "sandbox_defaultAccount",
      "params": [],
      "result": "0xdedb49385ad5b94a16f236a6890cf9e0b1e30392"
    }
  ],
  "Provides predefined accounts": [
    {
      "name": "sandbox_createAccounts",
      "params": [{
        "dedb49385ad5b94a16f236a6890cf9e0b1e30392": {
          "pkey": "974f963ee4571e86e5f9bc3b493e453db9c15e5bd19829a4ef9a790de0da0015",
          "balance": "1234",
          "nonce": "62",
          "default": true
        }
      }],
      "result": null
    },
    {
      "name": "sandbox_predefinedAccounts",
      "params": [],
      "result": {
        "dedb49385ad5b94a16f236a6890cf9e0b1e30392": "0x974f963ee4571e86e5f9bc3b493e453db9c15e5bd19829a4ef9a790de0da0015"
      }
    }
  ],
  "Provides accounts with details": [
    {
      "name": "sandbox_createAccounts",
      "params": [{
        "dedb49385ad5b94a16f236a6890cf9e0b1e30392": {
          "pkey": "974f963ee4571e86e5f9bc3b493e453db9c15e5bd19829a4ef9a790de0da0015",
          "balance": "1234",
          "nonce": "62",
          "default": true
        },
        "5e0d1ad9d5849c1a5c204dfb58a1e4f390a24337": {
          "balance": "012345",
          "nonce": 0
        }
      }],
      "result": null
    },
    {
      "name": "sandbox_accounts",
      "params": [true],
      "result": {
        "dedb49385ad5b94a16f236a6890cf9e0b1e30392": {
          "balance": "1234",
          "nonce": "62",
          "storage": {},
          "code": ""
        },
        "5e0d1ad9d5849c1a5c204dfb58a1e4f390a24337": {
          "balance": "012345",
          "nonce": "",
          "storage": {},
          "code": ""
        }
      }
    }
  ],
  "Provides account addresses": [
    {
      "name": "sandbox_createAccounts",
      "params": [{
        "dedb49385ad5b94a16f236a6890cf9e0b1e30392": {
          "pkey": "974f963ee4571e86e5f9bc3b493e453db9c15e5bd19829a4ef9a790de0da0015",
          "default": true
        },
        "5e0d1ad9d5849c1a5c204dfb58a1e4f390a24337": {
        }
      }],
      "result": null
    },
    {
      "name": "sandbox_accounts",
      "params": [false],
      "result": ["0x5e0d1ad9d5849c1a5c204dfb58a1e4f390a24337", "0xdedb49385ad5b94a16f236a6890cf9e0b1e30392"]
    }
  ],
  "Returns list of contracts": [
    {
      "name": "sandbox_createAccounts",
      "params": [{
        "dedb49385ad5b94a16f236a6890cf9e0b1e30392": {
          "pkey": "974f963ee4571e86e5f9bc3b493e453db9c15e5bd19829a4ef9a790de0da0015",
          "balance": 1000000000000000000000,
          "default": true
        }
      }],
      "result": null
    },
    {
      "name": "eth_sendTransaction",
      "params": [{
        "from": "0xdedb49385ad5b94a16f236a6890cf9e0b1e30392",
        "data": "0x60606040525b5b600a8060136000396000f30060606040526008565b00",
        "contract": {
          "name":"Contract",
          "binary":"60606040525b5b600a8060136000396000f30060606040526008565b00",
          "abi":[{"inputs":[],"type":"constructor"}]
        }
      }],
      "result": "0x07d54c6af0bfc0723d85660c3cd0c695644bb2175546c0819916760910fcb98a"
    },
    {
      "name": "sandbox_contracts",
      "wait": true,
      "params": [],
      "result": {
        "0x86e0497e32a8e1d79fe38ab87dc80140df5470d9": {
          "name":"Contract",
          "binary":"60606040525b5b600a8060136000396000f30060606040526008565b00",
          "abi":[{"inputs":[],"type":"constructor"}]
        }
      }
    }
  ],
  "Returns list of transaction details": [
    {
      "name": "sandbox_createAccounts",
      "params": [{
        "dedb49385ad5b94a16f236a6890cf9e0b1e30392": {
          "pkey": "974f963ee4571e86e5f9bc3b493e453db9c15e5bd19829a4ef9a790de0da0015",
          "balance": 1000000000000000000000,
          "default": true
        }
      }],
      "result": null
    },
    {
      "name": "eth_sendTransaction",
      "params": [{
        "from": "0xdedb49385ad5b94a16f236a6890cf9e0b1e30392",
        "to": "0x86e0497e32a8e1d79fe38ab87dc80140df5470d9",
        "value": "0x10"
      }],
      "result": "0x0e279d973bdfbc613fe4308ea9a1528f7c180627ffc443ff21bd1d1f34d114bc"
    },
    {
      "name": "sandbox_transactions",
      "wait": true,
      "params": [],
      "result": [{
        "from":"0xdedb49385ad5b94a16f236a6890cf9e0b1e30392",
        "nonce":"0x0",
        "to":"0x86e0497e32a8e1d79fe38ab87dc80140df5470d9",
        "gasLimit":"0x2fefd8",
        "gasUsed":"0x5208",
        "value":"0x10",
        "data":null,
        "createdAddress":null,
        "returnValue":null,
        "exception":1,
        "rlp":"0xf86580850ba43b7400832fefd89486e0497e32a8e1d79fe38ab87dc80140df5470d910801ba0f5ddc1b9b34d7f7e16cc01f6c0168e3c6e267a0a32e0049bdb451a5aeff6453ba054e0f07b8baa60ba670f85d0f1435ccd74b5dbf18901c7cb5bb3ac52380e2399"
      }]
    }
  ]
}
